:100000000C942A000C9447000C9447000C94470071
:100010000C9447000C9447000C9447000C94520336
:100020000C9447000C9447000C9447000C94BC02BD
:100030000C9447000C9447000C9447000C94470024
:100040000C9447000C9447000C9447000C94470014
:100050000C94470011241FBECFE5D8E0DEBFCDBF12
:1000600010E0A0E6B0E0E6E9FBE002C005900D92EA
:10007000A036B107D9F710E0A0E6B0E001C01D92AC
:10008000A637B107E1F70E94D9030C94C9050C9477
:10009000000082E063E041E00E949E0082E064E0B4
:1000A00041E00E949E0081E063E041E00E949E00EA
:1000B0000E94A1030895880F982F990F990F890F17
:1000C00090E00E94A8030895882319F08130B1F4CC
:1000D0000BC082E063E041E00E94230182E064E023
:1000E00040E00E942301089582E063E040E00E9426
:1000F000230182E064E041E00E94230108950E9410
:10010000B203089582E063E040E00E94230182E0B0
:1001100064E040E00E9423010895813049F081307D
:1001200028F0823039F0833041F406C06ABB08956C
:1001300067BB089564BB089561BB08954423C9F16A
:10014000413009F06EC0813099F0813030F082305A
:10015000D1F0833009F065C021C02AB381E090E07E
:1001600002C0880F991F6A95E2F7282B2ABB0895D1
:1001700027B381E090E002C0880F991F6A95E2F7EB
:10018000282B27BB089524B381E090E002C0880F9C
:10019000991F6A95E2F7282B24BB089521B381E0CB
:1001A00090E002C0880F991F6A95E2F7282B21BBC7
:1001B0000895813099F0813028F08230D9F0833071
:1001C00081F524C02AB381E090E002C0880F991F16
:1001D0006A95E2F7809582238ABB089527B381E070
:1001E00090E002C0880F991F6A95E2F780958223FC
:1001F00087BB089524B381E090E002C0880F991F67
:100200006A95E2F78095822384BB089521B381E04B
:1002100090E002C0880F991F6A95E2F780958223CB
:1002200081BB0895813049F0813028F0823039F067
:10023000833041F406C06BBB089568BB089565BB6D
:10024000089562BB08954423C9F1413009F06EC09E
:10025000813099F0813030F08230D1F0833009F074
:1002600065C021C02BB381E090E002C0880F991FC8
:100270006A95E2F7282B2BBB089528B381E090E024
:1002800002C0880F991F6A95E2F7282B28BB0895B2
:1002900025B381E090E002C0880F991F6A95E2F7CC
:1002A000282B25BB089522B381E090E002C0880F7F
:1002B000991F6A95E2F7282B22BB0895813099F0A7
:1002C000813028F08230D9F0833081F524C02BB3FF
:1002D00081E090E002C0880F991F6A95E2F780954F
:1002E00082238BBB089528B381E090E002C0880F81
:1002F000991F6A95E2F78095822388BB089525B3FC
:1003000081E090E002C0880F991F6A95E2F780951E
:10031000822385BB089522B381E090E002C0880F5C
:10032000991F6A95E2F78095822382BB0895FB01AD
:10033000813049F0813028F0823039F0833051F437
:1003400007C089B303C086B301C083B38083089517
:1003500080B380830895FA01813049F0813028F01C
:10036000823039F08330C1F40EC089B303C086B344
:1003700001C083B390E002C0959587956A95E2F736
:1003800081708083089580B390E002C09595879531
:100390006A95E2F7817080830895813091F0813011
:1003A00028F08230C9F0833061F521C02BB381E0A1
:1003B00090E002C0880F991F6A95E2F728272BBBAF
:1003C000089528B381E090E002C0880F991F6A95D4
:1003D000E2F7282728BB089525B381E090E002C00A
:1003E000880F991F6A95E2F7282725BB089522B345
:1003F00081E090E002C0880F991F6A95E2F72827F4
:1004000022BB089583E065E041E00E949E000895CC
:1004100083E065E041E00E942301089583E065E008
:1004200040E00E942301089583E065E00E94CD0131
:10043000089583E065E041E00E949E000E94B603BB
:100440000E94D50308959C01B901882777FD809506
:10045000982F0E9494042AE939E949E95EE30E9451
:10046000200520E030E040EA50E40E9402040E94AF
:100470006604862F0E94C103089581E064E041E094
:100480000E949E0081E065E041E00E949E0081E0C4
:1004900066E040E00E949E0081E067E041E00E944B
:1004A0009E0083E58DB9089581E064E040E00E94FC
:1004B0009E0081E065E040E00E949E0081E066E0F1
:1004C00041E00E949E0081E067E040E00E949E00C3
:1004D00080E48DB9089581E064E040E00E9423014A
:1004E000089581E064E041E00E94230108958FB9FE
:1004F000779BFECF8FB1089583B783BF89B78160A3
:1005000089BF8FB780688FBF089583B7856083BF29
:10051000089583B78E7F83BF83B78D7F83BF83B7F3
:100520008B7F83BF089528EE33E040E050E00E94C7
:100530008305DC01CB01E6E0B695A79597958795F5
:10054000EA95D1F7492F5A2F6B2F77278195809302
:10055000690082BF4F5F5F4F6F4F7F4F40936500D1
:1005600050936600609367007093680008959093BD
:100570006B0080936A0008951F920F920FB60F923E
:1005800011242F933F934F935F936F937F938F9398
:100590009F93AF93BF93EF93FF9380916C009091E3
:1005A0006D00A0916E00B0916F000196A11DB11D6C
:1005B00080936C0090936D00A0936E00B0936F00D9
:1005C00040916500509166006091670070916800ED
:1005D00084179507A607B70781F48091690082BF49
:1005E00010926C0010926D0010926E0010926F00CD
:1005F000E0916A00F0916B000995FF91EF91BF9136
:10060000AF919F918F917F916F915F914F913F91AA
:100610002F910F900FBE0F901F9018958EB5886088
:100620008EBD89B7806189BF8FB780688FBF0895FD
:100630008EB585608EBD08958EB58E7F8EBD8EB5CC
:100640008D7F8EBD8EB58B7F8EBD0895603A2FE075
:10065000720720E0820720E09207F0F428EE33E0F2
:1006600040E050E00E948305DC01CB01E6E0B69556
:10067000A79597958795EA95D1F701979BBD8ABD78
:1006800081E090E0A0E0B0E0809361009093620090
:10069000A0936300B09364000895909371008093D9
:1006A000700008951F920F920FB60F9211242F938E
:1006B0003F934F935F936F937F938F939F93AF93EA
:1006C000BF93EF93FF938091720090917300A0917C
:1006D0007400B09175000196A11DB11D8093720048
:1006E00090937300A0937400B093750040916100E3
:1006F00050916200609163007091640084179507C7
:10070000A607B70769F41092720010927300109256
:10071000740010927500E0917000F09171000995DD
:10072000FF91EF91BF91AF919F918F917F916F91C9
:100730005F914F913F912F910F900FBE0F901F909F
:10074000189583B7886483BF83B7806283BF089599
:10075000382F20E0C90164E670E00E94A2056150D4
:100760006CBF089583B7836083BF08958FB5826897
:100770008FBD8EB58C618EBD82EE94E097BD86BD37
:100780000895482F50E022EE34E0429FC001439F7D
:10079000900D529F900D112464E670E00E94B60502
:1007A000615070407BBD6ABD08958EB584608EBD7A
:1007B00008950E9419020E9454020E9402028FEFC3
:1007C00091EEA4E081509040A040E1F700C000000D
:1007D00080E00E947702813329F40E9408028CE3B2
:1007E00090E006C0823339F40E940E028AE590E060
:1007F0000E942302EDCF833359F78AE00E945B0009
:10080000E7CF5058BB27AA270ED0E0C0D1D030F098
:10081000D6D020F031F49F3F11F41EF4C6C00EF480
:10082000E095E7FBBCC0E92FE2D080F3BA1762077E
:1008300073078407950718F071F49EF5FAC00EF45B
:10084000E0950B2EBA2FA02D0B01B90190010C01E0
:10085000CA01A0011124FF27591B99F0593F50F4F8
:10086000503E68F11A16F040A22F232F342F442750
:10087000585FF3CF469537952795A795F040539548
:10088000C9F77EF41F16BA0B620B730B840BBAF018
:100890009150A1F0FF0FBB1F661F771F881FC2F783
:1008A0000EC0BA0F621F731F841F48F48795779597
:1008B0006795B795F7959E3F08F0B3CF9395880F4E
:1008C00008F09927EE0F97958795089598D088F0AE
:1008D0009F5790F0B92F9927B751A0F0D1F0660F2C
:1008E000771F881F991F1AF0BA95C9F712C0B13047
:1008F00081F09FD0B1E008959CC0672F782F8827A2
:10090000B85F39F0B93FCCF3869577956795B39585
:10091000D9F73EF490958095709561957F4F8F4FF4
:100920009F4F0895E89409C097FB3EF490958095F9
:10093000709561957F4F8F4F9F4F9923A9F0F92FA5
:1009400096E9BB279395F695879577956795B79523
:10095000F111F8CFFAF4BB0F11F460FF1BC06F5F09
:100960007F4F8F4F9F4F16C0882311F096E911C01B
:10097000772321F09EE8872F762F05C0662371F03C
:1009800096E8862F70E060E02AF09A95660F771F50
:10099000881FDAF7880F9695879597F9089597F944
:1009A0009F6780E870E060E008959FEF80EC089515
:1009B00000240A941616170618060906089500243E
:1009C0000A9412161306140605060895092E0394B8
:1009D000000C11F4882352F0BB0F40F4BF2B11F42C
:1009E00060FF04C06F5F7F4F8F4F9F4F089557FD8B
:1009F0009058440F551F59F05F3F71F04795880F8D
:100A000097FB991F61F09F3F79F087950895121623
:100A100013061406551FF2CF4695F1DF08C01616CF
:100A200017061806991FF1CF869571056105089480
:100A30000895E894BB2766277727CB0197F9089597
:100A40000BD0C4CFB5DF28F0BADF18F0952309F03A
:100A5000A6CFABCF1124EECFCADFA0F3959FD1F381
:100A6000950F50E0551F629FF001729FBB27F00D5C
:100A7000B11D639FAA27F00DB11DAA1F649F6627B1
:100A8000B00DA11D661F829F2227B00DA11D621F00
:100A9000739FB00DA11D621F839FA00D611D221FBA
:100AA000749F3327A00D611D231F849F600D211D9E
:100AB000822F762F6A2F11249F5750408AF0E1F041
:100AC00088234AF0EE0FFF1FBB1F661F771F881F8A
:100AD00091505040A9F79E3F510570F060CFAACFCA
:100AE0005F3FECF3983EDCF3869577956795B79575
:100AF000F795E7959F5FC1F7FE2B880F911D96959F
:100B0000879597F90895629FD001739FF001829FA6
:100B1000E00DF11D649FE00DF11D929FF00D839F8C
:100B2000F00D749FF00D659FF00D9927729FB00D29
:100B3000E11DF91F639FB00DE11DF91FBD01CF013C
:100B400011240895AA1BBB1B51E107C0AA1FBB1F9C
:100B5000A617B70710F0A61BB70B881F991F5A9549
:100B6000A9F780959095BC01CD01089597FB092EBA
:100B700007260AD077FD04D0E5DF06D000201AF45E
:100B8000709561957F4F0895F6F7909581959F4FE9
:060B90000895F894FFCF68
:00000001FF
