S00C00006D61696E2E7372656373
S11300000C942A000C9447000C9447000C9447006D
S11300100C9447000C9447000C9447000C94470040
S11300200C9447000C9447000C9447000C94470030
S11300300C9447000C9447000C9447000C94470020
S11300400C9447000C9447000C9447000C94470010
S11300500C94470011241FBECFE5D8E0DEBFCDBF0E
S113006010E0A0E6B0E0EEE4F4E002C005900D92EA
S1130070A036B107D9F710E0A0E6B0E001C01D92A8
S1130080A036B107E1F70E9414020C9425020C94E7
S11300900000813049F0813028F0823039F083301B
S11300A041F406C06ABB089567BB089564BB089514
S11300B061BB08954423C9F1413009F06EC0813019
S11300C099F0813030F08230D1F0833009F065C08E
S11300D021C02AB381E090E002C0880F991F6A957D
S11300E0E2F7282B2ABB089527B381E090E002C0F1
S11300F0880F991F6A95E2F7282B27BB089524B32C
S113010081E090E002C0880F991F6A95E2F7282BDE
S113011024BB089521B381E090E002C0880F991FA9
S11301206A95E2F7282B21BB0895813099F081303C
S113013028F08230D9F0833081F524C02AB381E0DD
S113014090E002C0880F991F6A95E2F78095822398
S11301508ABB089527B381E090E002C0880F991FFD
S11301606A95E2F78095822387BB089524B381E0E2
S113017090E002C0880F991F6A95E2F78095822368
S113018084BB089521B381E090E002C0880F991FD9
S11301906A95E2F78095822381BB0895813049F006
S11301A0813028F0823039F0833041F406C06BBBD3
S11301B0089568BB089565BB089562BB0895442300
S11301C0C9F1413009F06EC0813099F0813030F0CE
S11301D08230D1F0833009F065C021C02BB381E0B7
S11301E090E002C0880F991F6A95E2F7282B2BBB79
S11301F0089528B381E090E002C0880F991F6A95A2
S1130200E2F7282B28BB089525B381E090E002C0D3
S1130210880F991F6A95E2F7282B25BB089522B30E
S113022081E090E002C0880F991F6A95E2F7282BBD
S113023022BB0895813099F0813028F08230D9F0C2
S1130240833081F524C02BB381E090E002C0880F95
S1130250991F6A95E2F7809582238BBB089528B392
S113026081E090E002C0880F991F6A95E2F78095BB
S1130270822388BB089525B381E090E002C0880FF3
S1130280991F6A95E2F78095822385BB089522B36E
S113029081E090E002C0880F991F6A95E2F780958B
S11302A0822382BB0895FB01813049F0813028F01C
S11302B0823039F0833051F407C089B303C086B368
S11302C001C083B38083089580B380830895FA01C5
S11302D0813049F0813028F0823039F08330C1F424
S11302E00EC089B303C086B301C083B390E002C0DB
S11302F0959587956A95E2F781708083089580B318
S113030090E002C0959587956A95E2F781708083A5
S11303100895813091F0813028F08230C9F0833023
S113032061F521C02BB381E090E002C0880F991FD2
S11303306A95E2F728272BBB089528B381E090E063
S113034002C0880F991F6A95E2F7282728BB0895F1
S113035025B381E090E002C0880F991F6A95E2F707
S1130360282725BB089522B381E090E002C0880FBE
S1130370991F6A95E2F7282722BB089583E065E078
S113038041E00E945A00089583E065E041E00E9444
S1130390DF00089583E065E040E00E94DF000895F7
S11303A083E065E00E948901089581E064E041E012
S11303B00E945A0081E065E041E00E945A0081E019
S11303C066E040E00E945A0081E067E041E00E945C
S11303D05A0083E58DB9089581E064E040E00E940D
S11303E05A0081E065E040E00E945A0081E066E046
S11303F041E00E945A0081E067E040E00E945A0018
S113040080E48DB9089581E064E040E00E94DF005B
S1130410089581E064E041E00E94DF0008958FB90F
S1130420779BFECF8FB108950E94EC010E94BE011C
S113043080E00E940F02813319F40E94C401F8CFB6
S11104408233B1F70E94CA01F3CFF894FFCFC4
S9030000FC
