:100000000C942A000C9447000C9447000C94470071
:100010000C9447000C9447000C9447000C94470044
:100020000C9447000C9447000C9447000C94470034
:100030000C9447000C9447000C9447000C94470024
:100040000C9447000C9447000C9447000C94470014
:100050000C94470011241FBECFE5D8E0DEBFCDBF12
:1000600010E0A0E6B0E0E2EAF8E002C005900D92F0
:10007000A036B107D9F710E0A0E6B0E001C01D92AC
:10008000A036B107E1F70E94CF030C944F040C9403
:100090000000813049F0813028F0823039F083301F
:1000A00041F406C06ABB089567BB089564BB089518
:1000B00061BB0895442309F441C0413009F07EC07A
:1000C0008130A9F0813030F08230F1F0833009F0D6
:1000D00075C027C02AB381E090E0AC0102C0440F94
:1000E000551F6A95E2F7BA01622B6ABB089527B3E0
:1000F00081E090E0AC0102C0440F551F6A95E2F721
:10010000BA01622B67BB089524B381E090E0AC0193
:1001100002C0440F551F6A95E2F7BA01622B64BB17
:10012000089521B381E090E0AC0102C0440F551F57
:100130006A95E2F7BA01622B61BB08958130A9F09C
:10014000813028F08230F9F08330C1F52AC02AB31B
:1001500081E090E0AC0102C0440F551F6A95E2F7C0
:10016000BA01609562236ABB089527B381E090E0ED
:10017000AC0102C0440F551F6A95E2F7BA016095C1
:10018000622367BB089524B381E090E0AC0102C014
:10019000440F551F6A95E2F7BA016095622364BB6C
:1001A000089521B381E090E0AC0102C0440F551FD7
:1001B0006A95E2F7BA016095622361BB08958130C8
:1001C00049F0813028F0823039F0833041F406C0A4
:1001D0006BBB089568BB089565BB089562BB089525
:1001E000442309F441C0413009F07EC08130A9F0B8
:1001F000813030F08230F1F0833009F075C027C0D3
:100200002BB381E090E0AC0102C0440F551F6A950A
:10021000E2F7BA01622B6BBB089528B381E090E04E
:10022000AC0102C0440F551F6A95E2F7BA01622B78
:1002300068BB089525B381E090E0AC0102C0440F93
:10024000551F6A95E2F7BA01622B65BB089522B388
:1002500081E090E0AC0102C0440F551F6A95E2F7BF
:10026000BA01622B62BB08958130A9F0813028F079
:100270008230F9F08330C1F52AC02BB381E090E0E1
:10028000AC0102C0440F551F6A95E2F7BA016095B0
:1002900062236BBB089528B381E090E0AC0102C0FB
:1002A000440F551F6A95E2F7BA016095622368BB57
:1002B000089525B381E090E0AC0102C0440F551FC2
:1002C0006A95E2F7BA016095622365BB089522B38F
:1002D00081E090E0AC0102C0440F551F6A95E2F73F
:1002E000BA016095622362BB0895813059F0813074
:1002F00028F0823059F0833081F40CC089B3FB01BF
:100300008083089586B3FB018083089583B3FB0146
:100310008083089580B3FB01808308958130A1F02C
:10032000813028F08230E9F08330A1F527C089B30D
:1003300090E09C0102C0359527956A95E2F7B901D6
:100340006170FA016083089586B390E09C0102C059
:10035000359527956A95E2F7B9016170FA016083D6
:10036000089583B390E09C0102C0359527956A9566
:10037000E2F7B9016170FA016083089580B390E0FB
:100380009C0102C0359527956A95E2F7B901617025
:10039000FA01608308958130A1F0813028F0823025
:1003A000E9F08330A1F527C02BB381E090E0AC01E8
:1003B00002C0440F551F6A95E2F7BA0162276BBB72
:1003C000089528B381E090E0AC0102C0440F551FAE
:1003D0006A95E2F7BA01622768BB089525B381E008
:1003E00090E0AC0102C0440F551F6A95E2F7BA01D4
:1003F000622765BB089522B381E090E0AC0102C0A2
:10040000440F551F6A95E2F7BA01622762BB08954F
:100410008130A1F0813028F08230E9F08330A1F5FD
:1004200027C02BB381E090E0AC0102C0440F551F00
:100430006A95E2F7BA01622B6BBB089528B381E09D
:1004400090E0AC0102C0440F551F6A95E2F7BA0173
:10045000622B68BB089525B381E090E0AC0102C037
:10046000440F551F6A95E2F7BA01622B65BB0895E8
:1004700022B381E090E0AC0102C0440F551F6A95A1
:10048000E2F7BA01622B62BB0895CF93C82F81E0D7
:1004900061E040E00E94F00081E062E040E00E9404
:1004A000F00081E063E040E00E94F0008BB39C2FFD
:1004B000907F8F70892B8BBB81E063E041E00E94CD
:1004C000F0008FE99FE00197F1F700C0000081E0A4
:1004D00063E040E00E94F0008BB3C295C07F8F7054
:1004E000C82BCBBB81E063E041E00E94F0008FE9C4
:1004F0009FE00197F1F700C0000081E063E040E079
:100500000E94F0008FE19EE40197F1F700C0000027
:10051000CF91089581E061E041E00E945A0081E0BE
:1005200062E041E00E945A0081E063E041E00E9405
:100530005A0080E064E041E00E945A0080E065E0FB
:1005400041E00E945A0080E066E041E00E945A00CB
:1005500080E067E041E00E945A008FEF91EEA4E056
:1005600081509040A040E1F700C0000083E30E946A
:10057000450282E30E94450288E20E9445028EE025
:100580000E94450281E00E94450282E00E944502ED
:100590000895CF93C82F81E061E041E00E94F00010
:1005A00081E062E040E00E94F00081E063E040E032
:1005B0000E94F0008C2F807F8BBB81E063E041E0E4
:1005C0000E94F0008FE99FE00197F1F700C0000062
:1005D00081E063E040E00E94F000C295C07FCBBBA9
:1005E00081E063E041E00E94F0008FE99FE0019725
:1005F000F1F700C0000081E063E040E00E94F000FD
:100600008FE19EE40197F1F700C00000CF910895BB
:100610000F931F93CF938C01FC018081882351F0AD
:10062000C0E00E94C902CF5FF801EC0FF11D80818C
:100630008823B9F7CF911F910F91089581E00E940F
:1006400045020895CF93DF9300D0CDB7DEB790E891
:10065000998390EC9A83FE01E80FF11D8181860F4A
:100660000E9445020F900F90DF91CF9108954F9215
:100670005F926F927F928F929F92AF92BF92CF9232
:10068000DF92EF92FF92CF93DF936B017C0199236E
:100690005CF48DE20E94C902F094E094D094C0947E
:1006A000C11CD11CE11CF11CC114D104E104F104F2
:1006B00009F44FC081E090E0A0E0B0E00F2EFAE036
:1006C0008F2EF0E09F2EF0E0AF2EF0E0BF2EF02D49
:1006D000BC01CD01A50194010E94F3032B013C0153
:1006E000C701B6010E941204DC01CB01840D951DE7
:1006F000A61DB71DC22ED32EE42EF52EC114D10493
:10070000E104F10429F782309105A105B1050CF14E
:100710000F2EFAE04F2EF0E05F2EF0E06F2EF0E0AB
:100720007F2EF02DBC01CD01A30192010E94120485
:10073000822EC32EC42FD52F862F805D0E94C90222
:10074000882D9C2DAC2FBD2F82309105A105B105C0
:100750004CF7DF91CF91FF90EF90DF90CF90BF905B
:10076000AF909F908F907F906F905F904F90089583
:1007700082E062E041E00E945A00089582E062E077
:1007800041E00E94F000089582E062E040E00E94B3
:10079000F000089582E062E00E94CB0108950E947B
:1007A000B8030E94D70381E00E94EE03FCCF83E0F0
:1007B00060E040E00E945A0083E061E041E00E9476
:1007C0005A008AB188618AB980B5866880BD82E6A0
:1007D00089B908955F9BFECF8CB108959BB195FFB9
:1007E000FDCF8CB90895629FD001739FF001829F65
:1007F000E00DF11D649FE00DF11D929FF00D839FB0
:10080000F00D749FF00D659FF00D9927729FB00D4C
:10081000E11DF91F639FB00DE11DF91FBD01CF015F
:100820001124089597FB092E05260ED057FD04D0FC
:1008300014D00AD0001C38F450954095309521957D
:100840003F4F4F4F5F4F0895F6F790958095709505
:1008500061957F4F8F4F9F4F0895A1E21A2EAA1BDB
:10086000BB1BFD010DC0AA1FBB1FEE1FFF1FA21760
:10087000B307E407F50720F0A21BB30BE40BF50B5D
:10088000661F771F881F991F1A9469F760957095E6
:10089000809590959B01AC01BD01CF010895F8941E
:0208A000FFCF88
:00000001FF
