S00C00006D61696E2E7372656373
S11300000C942A000C9447000C9447000C9447006D
S11300100C9447000C9447000C9447000C941B0567
S11300200C9447000C9447000C9447000C948404EF
S11300300C9447000C9447000C9447000C94470020
S11300400C9447000C9447000C9447000C94470010
S11300500C94470011241FBECFE5D8E0DEBFCDBF0E
S113006010E0A0E6B0E0ECE4FFE002C005900D92E1
S1130070A436B107D9F710E0A4E6B0E001C01D92A0
S1130080AA37B107E1F70E94CF030C94A4070C949C
S11300900000813049F0813028F0823039F083301B
S11300A041F406C06ABB089567BB089564BB089514
S11300B061BB0895442309F441C0413009F07EC076
S11300C08130A9F0813030F08230F1F0833009F0D2
S11300D075C027C02AB381E090E0AC0102C0440F90
S11300E0551F6A95E2F7BA01622B6ABB089527B3DC
S11300F081E090E0AC0102C0440F551F6A95E2F71D
S1130100BA01622B67BB089524B381E090E0AC018F
S113011002C0440F551F6A95E2F7BA01622B64BB13
S1130120089521B381E090E0AC0102C0440F551F53
S11301306A95E2F7BA01622B61BB08958130A9F098
S1130140813028F08230F9F08330C1F52AC02AB317
S113015081E090E0AC0102C0440F551F6A95E2F7BC
S1130160BA01609562236ABB089527B381E090E0E9
S1130170AC0102C0440F551F6A95E2F7BA016095BD
S1130180622367BB089524B381E090E0AC0102C010
S1130190440F551F6A95E2F7BA016095622364BB68
S11301A0089521B381E090E0AC0102C0440F551FD3
S11301B06A95E2F7BA016095622361BB08958130C4
S11301C049F0813028F0823039F0833041F406C0A0
S11301D06BBB089568BB089565BB089562BB089521
S11301E0442309F441C0413009F07EC08130A9F0B4
S11301F0813030F08230F1F0833009F075C027C0CF
S11302002BB381E090E0AC0102C0440F551F6A9506
S1130210E2F7BA01622B6BBB089528B381E090E04A
S1130220AC0102C0440F551F6A95E2F7BA01622B74
S113023068BB089525B381E090E0AC0102C0440F8F
S1130240551F6A95E2F7BA01622B65BB089522B384
S113025081E090E0AC0102C0440F551F6A95E2F7BB
S1130260BA01622B62BB08958130A9F0813028F075
S11302708230F9F08330C1F52AC02BB381E090E0DD
S1130280AC0102C0440F551F6A95E2F7BA016095AC
S113029062236BBB089528B381E090E0AC0102C0F7
S11302A0440F551F6A95E2F7BA016095622368BB53
S11302B0089525B381E090E0AC0102C0440F551FBE
S11302C06A95E2F7BA016095622365BB089522B38B
S11302D081E090E0AC0102C0440F551F6A95E2F73B
S11302E0BA016095622362BB0895813059F0813070
S11302F028F0823059F0833081F40CC089B3FB01BB
S11303008083089586B3FB018083089583B3FB0142
S11303108083089580B3FB01808308958130A1F028
S1130320813028F08230E9F08330A1F527C089B309
S113033090E09C0102C0359527956A95E2F7B901D2
S11303406170FA016083089586B390E09C0102C055
S1130350359527956A95E2F7B9016170FA016083D2
S1130360089583B390E09C0102C0359527956A9562
S1130370E2F7B9016170FA016083089580B390E0F7
S11303809C0102C0359527956A95E2F7B901617021
S1130390FA01608308958130A1F0813028F0823021
S11303A0E9F08330A1F527C02BB381E090E0AC01E4
S11303B002C0440F551F6A95E2F7BA0162276BBB6E
S11303C0089528B381E090E0AC0102C0440F551FAA
S11303D06A95E2F7BA01622768BB089525B381E004
S11303E090E0AC0102C0440F551F6A95E2F7BA01D0
S11303F0622765BB089522B381E090E0AC0102C09E
S1130400440F551F6A95E2F7BA01622762BB08954B
S11304108130A1F0813028F08230E9F08330A1F5F9
S113042027C02BB381E090E0AC0102C0440F551FFC
S11304306A95E2F7BA01622B6BBB089528B381E099
S113044090E0AC0102C0440F551F6A95E2F7BA016F
S1130450622B68BB089525B381E090E0AC0102C033
S1130460440F551F6A95E2F7BA01622B65BB0895E4
S113047022B381E090E0AC0102C0440F551F6A959D
S1130480E2F7BA01622B62BB0895CF93C82F81E0D3
S113049061E040E00E94F00081E062E040E00E9400
S11304A0F00081E063E040E00E94F0008BB39C2FF9
S11304B0907F8F70892B8BBB81E063E041E00E94C9
S11304C0F0008FE99FE00197F1F700C0000081E0A0
S11304D063E040E00E94F0008BB3C295C07F8F7050
S11304E0C82BCBBB81E063E041E00E94F0008FE9C0
S11304F09FE00197F1F700C0000081E063E040E075
S11305000E94F0008FE19EE40197F1F700C0000023
S1130510CF91089581E061E041E00E945A0081E0BA
S113052062E041E00E945A0081E063E041E00E9401
S11305305A0080E064E041E00E945A0080E065E0F7
S113054041E00E945A0080E066E041E00E945A00C7
S113055080E067E041E00E945A008FEF91EEA4E052
S113056081509040A040E1F700C0000083E30E9466
S1130570450282E30E94450288E20E9445028EE021
S11305800E94450281E00E94450282E00E944502E9
S11305900895CF93C82F81E061E041E00E94F0000C
S11305A081E062E040E00E94F00081E063E040E02E
S11305B00E94F0008C2F807F8BBB81E063E041E0E0
S11305C00E94F0008FE99FE00197F1F700C000005E
S11305D081E063E040E00E94F000C295C07FCBBBA5
S11305E081E063E041E00E94F0008FE99FE0019721
S11305F0F1F700C0000081E063E040E00E94F000F9
S11306008FE19EE40197F1F700C00000CF910895B7
S11306100F931F93CF938C01FC018081882351F0A9
S1130620C0E00E94C902CF5FF801EC0FF11D808188
S11306308823B9F7CF911F910F91089581E00E940B
S113064045020895CF93DF9300D0CDB7DEB790E88D
S1130650998390EC9A83FE01E80FF11D8181860F46
S11306600E9445020F900F90DF91CF9108954F9211
S11306705F926F927F928F929F92AF92BF92CF922E
S1130680DF92EF92FF92CF93DF936B017C0199236A
S11306905CF48DE20E94C902F094E094D094C0947A
S11306A0C11CD11CE11CF11CC114D104E104F104EE
S11306B009F44FC081E090E0A0E0B0E00F2EFAE032
S11306C08F2EF0E09F2EF0E0AF2EF0E0BF2EF02D45
S11306D0BC01CD01A50194010E9421072B013C011D
S11306E0C701B6010E946707DC01CB01840D951D8B
S11306F0A61DB71DC22ED32EE42EF52EC114D1048F
S1130700E104F10429F782309105A105B1050CF14A
S11307100F2EFAE04F2EF0E05F2EF0E06F2EF0E0A7
S11307207F2EF02DBC01CD01A30192010E94670729
S1130730822EC32EC42FD52F862F805D0E94C9021E
S1130740882D9C2DAC2FBD2F82309105A105B105BC
S11307504CF7DF91CF91FF90EF90DF90CF90BF9057
S1130760AF909F908F907F906F905F904F9008957F
S113077082E062E041E00E945A00089582E062E073
S113078041E00E94F000089582E062E040E00E94AF
S1130790F000089582E062E00E94CB0108950E9477
S11307A01E030E94BE0590E00E9408038FEF93EDA4
S11307B0A0E381509040A040E1F700C00000EFCFDB
S11307C083E065E041E00E945A000E947F050E9498
S11307D09E0508952AE43FE944EB5EE30E94BE06C9
S11307E0462F572F682F792FCB01BA0120E030E034
S11307F046E752E40E94DD050E944106DC01CB017C
S11308009BBD8ABD089581E064E041E00E945A00E6
S113081081E065E041E00E945A0081E066E040E04A
S11308200E945A0081E067E041E00E945A0083E59B
S11308308DB9089581E064E040E00E945A0081E0AF
S113084065E040E00E945A0081E066E041E00E94D9
S11308505A0081E067E040E00E945A0080E48DB9CC
S1130860089581E064E040E00E94F000089581E092
S113087064E041E00E94F00008958FB9779BFECFB9
S11308808FB1089583B783BF89B7816089BF8FB75C
S113089080688FBF089583B7856083BF089583B749
S11308A08E7F83BF83B78D7F83BF83B78B7F83BFE7
S11308B0089528EE33E040E050E00E942107DC0177
S11308C0CB01689415F8B695A795979587951694D6
S11308D0D1F7492F5A2F6B2F7727819580936D007D
S11308E082BFDB01CA010196A11DB11D809369007D
S11308F090936A00A0936B00B0936C00089590935A
S11309006F0080936E0008951F920F920FB60F929E
S113091011242F933F934F935F936F937F938F9300
S11309209F93AF93BF93EF93FF9380917000909147
S11309307100A0917200B09173000196A11DB11DC8
S11309408093700090937100A0937200B093730031
S11309504091690050916A0060916B0070916C0045
S113096084179507A607B70781F480916D0082BFAD
S11309701092700010927100109272001092730025
S1130980E0916E00F0916F000995FF91EF91BF9196
S1130990AF919F918F917F916F915F914F913F9113
S11309A02F910F900FBE0F901F9018958EB58860F1
S11309B08EBD89B7806189BF8FB780688FBF089566
S11309C08EB585608EBD08958EB58E7F8EBD8EB535
S11309D08D7F8EBD8EB58B7F8EBD0895603A2FE0DE
S11309E0720720E0820720E09207F8F428EE33E053
S11309F040E050E00E942107DC01CB01689415F827
S1130A00B695A795979587951694D1F701979BBDB1
S1130A108ABD81E090E0A0E0B0E08093650090930F
S1130A206600A0936700B0936800089590937500E2
S1130A308093740008951F920F920FB60F921124A1
S1130A402F933F934F935F936F937F938F939F93D2
S1130A50AF93BF93EF93FF938091760090917700CB
S1130A60A0917800B09179000196A11DB11D8093E9
S1130A70760090937700A0937800B093790040912A
S1130A80650050916600609167007091680084175A
S1130A909507A607B70769F41092760010927700BD
S1130AA01092780010927900E0917400F091750032
S1130AB00995FF91EF91BF91AF919F918F917F9194
S1130AC06F915F914F913F912F910F900FBE0F90B7
S1130AD01F90189583B7886483BF83B7806283BFF0
S1130AE00895382F20E0C90164E670E00E944007B1
S1130AF061506CBF089583B7836083BF08958FB539
S1130B0082688FBD8EB58C618EBD82EE94E097BDF8
S1130B1086BD0895482F50E022EE34E0429FC00184
S1130B20439F900D529F900D112464E670E00E9443
S1130B305407615070407BBD6ABD08958EB58460D2
S1130B408EBD089583E060E040E00E945A0083E097
S1130B5061E041E00E945A008AB188618AB980B597
S1130B60866880BD87E689B908955F9BFECF8CB106
S1130B7008959BB195FFFDCF8CB908951F93CF9332
S1130B80DF9380916000882389F0C0E0D0E010E01A
S1130B900E94B505C05ADF4F88831F5FC12FD0E084
S1130BA0FE01E05AFF4F8081882391F780E690E0B0
S1130BB0DF91CF911F9108955058BB27AA270ED0DB
S1130BC0A3C094D030F099D020F031F49F3F11F4B9
S1130BD01EF489C00EF4E095E7FB7FC0E92FA5D091
S1130BE080F3BA17620773078407950718F071F446
S1130BF09EF5BDC00EF4E0950B2EBA2FA02D0B016F
S1130C00B90190010C01CA01A0011124FF27591B4D
S1130C1099F0593F50F4503E68F11A16F040A22F53
S1130C20232F342F4427585FF3CF469537952795C4
S1130C30A795F0405395C9F77EF41F16BA0B620BC3
S1130C40730B840BBAF09150A1F0FF0FBB1F661F0A
S1130C50771F881FC2F70EC0BA0F621F731F841F4D
S1130C6048F4879577956795B795F7959E3F08F073
S1130C70B3CF9395880F08F09927EE0F9795879532
S1130C8008955BD088F09F5790F0B92F9927B751FA
S1130C90A0F0D1F0660F771F881F991F1AF0BA953C
S1130CA0C9F712C0B13081F062D0B1E008955FC0DD
S1130CB0672F782F8827B85F39F0B93FCCF3869532
S1130CC077956795B395D9F73EF49095809570958F
S1130CD061957F4F8F4F9F4F089597F99F6780E8E5
S1130CE070E060E008959FEF80EC089500240A947A
S1130CF01616170618060906089500240A941216F3
S1130D001306140605060895092E0394000C11F425
S1130D10882352F0BB0F40F4BF2B11F460FF04C0D2
S1130D206F5F7F4F8F4F9F4F089557FD9058440F2B
S1130D30551F59F05F3F71F04795880F97FB991F36
S1130D4061F09F3F79F087950895121613061406F3
S1130D50551FF2CF4695F1DF08C016161706180680
S1130D60991FF1CF86957105610508940895E8945B
S1130D70BB2766277727CB0197F908950BD0C4CFFB
S1130D80B5DF28F0BADF18F0952309F0A6CFABCF72
S1130D901124EECFCADFA0F3959FD1F3950F50E055
S1130DA0551F629FF001729FBB27F00DB11D639F19
S1130DB0AA27F00DB11DAA1F649F6627B00DA11DBF
S1130DC0661F829F2227B00DA11D621F739FB00D65
S1130DD0A11D621F839FA00D611D221F749F3327D5
S1130DE0A00D611D231F849F600D211D822F762F6E
S1130DF06A2F11249F5750408AF0E1F088234AF06B
S1130E00EE0FFF1FBB1F661F771F881F91505040B6
S1130E10A9F79E3F510570F060CFAACF5F3FECF376
S1130E20983EDCF3869577956795B795F795E795A2
S1130E309F5FC1F7FE2B880F911D9695879597F9B3
S1130E400895629FD001739FF001829FE00DF11D10
S1130E50649FE00DF11D929FF00D839FF00D749F30
S1130E60F00D659FF00D9927729FB00DE11DF91FDC
S1130E70639FB00DE11DF91FBD01CF011124089539
S1130E80AA1BBB1B51E107C0AA1FBB1FA617B707AC
S1130E9010F0A61BB70B881F991F5A95A9F78095C8
S1130EA09095BC01CD01089597FB092E07260AD021
S1130EB077FD04D0E5DF06D000201AF47095619523
S1130EC07F4F0895F6F7909581959F4F089597FB6E
S1130ED0092E05260ED057FD04D014D00AD0001CCC
S1130EE038F450954095309521953F4F4F4F5F4FC3
S1130EF00895F6F790958095709561957F4F8F4F83
S1130F009F4F0895A1E21A2EAA1BBB1BFD010DC021
S1130F10AA1FBB1FEE1FFF1FA217B307E407F507A5
S1130F2020F0A21BB30BE40BF50B661F771F881F81
S1130F30991F1A9469F760957095809590959B0117
S10F0F40AC01BD01CF010895F894FFCF6F
S1070F4C6E0000002F
S9030000FC
