S00C00006D61696E2E7372656373
S11300000C942A000C9447000C9447000C9447006D
S11300100C9447000C9447000C9447000C94470040
S11300200C9447000C9447000C9447000C94470030
S11300300C9447000C9447000C9447000C94470020
S11300400C9447000C9447000C9447000C94470010
S11300500C94470011241FBECFE5D8E0DEBFCDBF0E
S113006010E0A0E6B0E0E8ECF8E002C005900D92E4
S1130070A037B107D9F710E0A0E7B0E001C01D92A6
S1130080A037B107E1F70E94D3030C9462040C94E7
S11300900000813049F0813028F0823039F083301B
S11300A041F406C06ABB089567BB089564BB089514
S11300B061BB08954423C9F1413009F06EC0813019
S11300C099F0813030F08230D1F0833009F065C08E
S11300D021C02AB381E090E002C0880F991F6A957D
S11300E0E2F7282B2ABB089527B381E090E002C0F1
S11300F0880F991F6A95E2F7282B27BB089524B32C
S113010081E090E002C0880F991F6A95E2F7282BDE
S113011024BB089521B381E090E002C0880F991FA9
S11301206A95E2F7282B21BB0895813099F081303C
S113013028F08230D9F0833081F524C02AB381E0DD
S113014090E002C0880F991F6A95E2F78095822398
S11301508ABB089527B381E090E002C0880F991FFD
S11301606A95E2F78095822387BB089524B381E0E2
S113017090E002C0880F991F6A95E2F78095822368
S113018084BB089521B381E090E002C0880F991FD9
S11301906A95E2F78095822381BB0895813049F006
S11301A0813028F0823039F0833041F406C06BBBD3
S11301B0089568BB089565BB089562BB0895442300
S11301C0C9F1413009F06EC0813099F0813030F0CE
S11301D08230D1F0833009F065C021C02BB381E0B7
S11301E090E002C0880F991F6A95E2F7282B2BBB79
S11301F0089528B381E090E002C0880F991F6A95A2
S1130200E2F7282B28BB089525B381E090E002C0D3
S1130210880F991F6A95E2F7282B25BB089522B30E
S113022081E090E002C0880F991F6A95E2F7282BBD
S113023022BB0895813099F0813028F08230D9F0C2
S1130240833081F524C02BB381E090E002C0880F95
S1130250991F6A95E2F7809582238BBB089528B392
S113026081E090E002C0880F991F6A95E2F78095BB
S1130270822388BB089525B381E090E002C0880FF3
S1130280991F6A95E2F78095822385BB089522B36E
S113029081E090E002C0880F991F6A95E2F780958B
S11302A0822382BB0895FB01813049F0813028F01C
S11302B0823039F0833051F407C089B303C086B368
S11302C001C083B38083089580B380830895FA01C5
S11302D0813049F0813028F0823039F08330C1F424
S11302E00EC089B303C086B301C083B390E002C0DB
S11302F0959587956A95E2F781708083089580B318
S113030090E002C0959587956A95E2F781708083A5
S11303100895813091F0813028F08230C9F0833023
S113032061F521C02BB381E090E002C0880F991FD2
S11303306A95E2F728272BBB089528B381E090E063
S113034002C0880F991F6A95E2F7282728BB0895F1
S113035025B381E090E002C0880F991F6A95E2F707
S1130360282725BB089522B381E090E002C0880FBE
S1130370991F6A95E2F7282722BB0895813091F0EE
S1130380813028F08230C9F0833061F521C02BB36D
S113039081E090E002C0880F991F6A95E2F7282B4C
S11303A02BBB089528B381E090E002C0880F991F09
S11303B06A95E2F7282B28BB089525B381E090E0E5
S11303C002C0880F991F6A95E2F7282B25BB089570
S11303D022B381E090E002C0880F991F6A95E2F78A
S11303E0282B22BB0895CF93C82F81E061E040E021
S11303F00E94DF0081E062E040E00E94DF0081E0D3
S113040063E040E00E94DF009BB38C2F807F9F70ED
S1130410892B8BBB81E063E041E00E94DF008FE920
S11304209FE00197F1F700C0000081E063E040E045
S11304300E94DF008BB3C295C07F8F70C82BCBBBEB
S113044081E063E041E00E94DF008FE99FE00197D3
S1130450F1F700C0000081E063E040E00E94DF00AB
S11304608FE19EE40197F1F700C00000CF91089559
S113047081E061E041E00E945A0081E062E041E0F5
S11304800E945A0081E063E041E00E945A0080E04B
S113049064E041E00E945A0080E065E041E00E948F
S11304A05A0080E066E041E00E945A0080E067E084
S11304B041E00E945A008FEF91EEA4E081509040F9
S11304C0A040E1F700C0000083E30E94F30182E34F
S11304D00E94F30188E20E94F3018EE00E94F3017E
S11304E081E00E94F30182E00E94F3010895CF931A
S11304F0C82F81E061E041E00E94DF0081E062E01A
S113050040E00E94DF0081E063E040E00E94DF0001
S11305108C2F807F8BBB81E063E041E00E94DF0091
S11305208FE99FE00197F1F700C0000081E063E0EC
S113053040E00E94DF00C295C07FCBBB81E063E056
S113054041E00E94DF008FE99FE00197F1F700C0CE
S1130550000081E063E040E00E94DF008FE19EE460
S11305600197F1F700C00000CF9108951F93CF9336
S1130570DF93EC0110E003C00E9477021F5FFE01CD
S1130580E10FF11D80818823B9F7DF91CF911F918D
S1130590089581E00E94F3010895CF93DF9300D082
S11305A0CDB7DEB790E8998390EC9A83FE01E80F0B
S11305B0F11D8181860F0E94F3010F900F90DF914E
S11305C0CF9108954F925F926F927F928F929F92F4
S11305D0AF92BF92CF92DF92EF92FF92CF93DF93CD
S11305E000D000D0CDB7DEB74B015C0197FF0BC044
S11305F08DE20E947702B094A09490948094811C20
S1130600911CA11CB11C91E0C92ED12CE12CF12C20
S11306102AE0422E512C612C712C18C0C701B6015E
S11306202AE030E040E050E00E9406046B017C01C7
S1130630C501B401A30192010E942504DC01CB0190
S1130640C80ED91EEA1EFB1E49015A0181149104E9
S1130650A104B10419F717C0C701B601A50194019B
S11306600E942504862F805D29833A834B835C8313
S11306700E9477022981C22E3A81D32E4B81E42E27
S11306805C81F52E05C08AE0882E912CA12CB12C1A
S113069082E0C816D104E104F104F4F60F900F903F
S11306A00F900F90DF91CF91FF90EF90DF90CF905C
S11306B0BF90AF909F908F907F906F905F904F907E
S11306C0089582E062E041E00E945A00089582E0C9
S11306D062E041E00E94DF00089582E062E040E0D1
S11306E00E94DF00089582E062E00E94890108957B
S11306F081E064E041E00E945A0081E065E041E06D
S11307000E945A0081E066E040E00E945A0081E0C5
S113071067E041E00E945A0083E58DB9089581E0C5
S113072064E040E00E945A0081E065E040E00E94FD
S11307305A0081E066E041E00E945A0081E067E0EF
S113074040E00E945A0080E48DB9089581E064E09D
S113075040E00E94DF00089581E064E041E00E94EF
S1130760DF0008958FB9779BFECF8FB1089583E0A2
S113077060E040E00E945A0083E061E041E00E94B2
S11307805A008AB188618AB980B5866880BD87E6D7
S113079089B908955F9BFECF8CB108959BB195FFF5
S11307A0FDCF8CB908950E9461030E94B7030E9493
S11307B038020E9478030E94A6030E94CA03C82F2D
S11307C00E94B2038FEF91EEA4E081509040A040CC
S11307D0E1F700C00000C13329F40E94670380E6FA
S11307E090E006C0C23349F70E946D0387E690E0AB
S11307F00E94B6028FEF99E6A8E181509040A04094
S1130800E1F700C000000E94C902D7CF629FD00167
S1130810739FF001829FE00DF11D649FE00DF11DB7
S1130820929FF00D839FF00D749FF00D659FF00D66
S11308309927729FB00DE11DF91F639FB00DE11D53
S1130840F91FBD01CF011124089597FB092E052638
S11308500ED057FD04D014D00AD0001C38F45095A3
S11308604095309521953F4F4F4F5F4F0895F6F7D0
S113087090958095709561957F4F8F4F9F4F089508
S1130880A1E21A2EAA1BBB1BFD010DC0AA1FBB1F90
S1130890EE1FFF1FA217B307E407F50720F0A21B02
S11308A0B30BE40BF50B661F771F881F991F1A946F
S11308B069F760957095809590959B01AC01BD0199
S10B08C0CF010895F894FFCF65
S11308C84C4544204F4E004C4544204F46460000BA
S9030000FC
