:100000000C942A000C9447000C9447000C94470071
:100010000C9447000C9447000C9447000C94F50492
:100020000C9447000C9447000C9447000C945F0418
:100030000C9447000C9447000C9447000C94470024
:100040000C9447000C9447000C9447000C94470014
:100050000C94470011241FBECFE5D8E0DEBFCDBF12
:1000600010E0A0E6B0E0ECE5F0E102C005900D92F2
:10007000A03DB107D9F710E0A0EDB0E001C01D929E
:10008000A63EB107E1F70E94AE050C942C080C9433
:10009000000082E063E041E00E949E0082E064E0B4
:1000A00041E00E949E0081E063E041E00E949E00EA
:1000B0000E9444050895880F982F990F990F890F72
:1000C00090E00E944B050895882319F08130B1F427
:1000D0000BC082E063E041E00E94230182E064E023
:1000E00040E00E942301089582E063E040E00E9426
:1000F000230182E064E041E00E94230108950E9410
:100100005505089582E063E040E00E94230182E00B
:1001100064E040E00E9423010895813049F081307D
:1001200028F0823039F0833041F406C06ABB08956C
:1001300067BB089564BB089561BB08954423C9F16A
:10014000413009F06EC0813099F0813030F082305A
:10015000D1F0833009F065C021C02AB381E090E07E
:1001600002C0880F991F6A95E2F7282B2ABB0895D1
:1001700027B381E090E002C0880F991F6A95E2F7EB
:10018000282B27BB089524B381E090E002C0880F9C
:10019000991F6A95E2F7282B24BB089521B381E0CB
:1001A00090E002C0880F991F6A95E2F7282B21BBC7
:1001B0000895813099F0813028F08230D9F0833071
:1001C00081F524C02AB381E090E002C0880F991F16
:1001D0006A95E2F7809582238ABB089527B381E070
:1001E00090E002C0880F991F6A95E2F780958223FC
:1001F00087BB089524B381E090E002C0880F991F67
:100200006A95E2F78095822384BB089521B381E04B
:1002100090E002C0880F991F6A95E2F780958223CB
:1002200081BB0895813049F0813028F0823039F067
:10023000833041F406C06BBB089568BB089565BB6D
:10024000089562BB08954423C9F1413009F06EC09E
:10025000813099F0813030F08230D1F0833009F074
:1002600065C021C02BB381E090E002C0880F991FC8
:100270006A95E2F7282B2BBB089528B381E090E024
:1002800002C0880F991F6A95E2F7282B28BB0895B2
:1002900025B381E090E002C0880F991F6A95E2F7CC
:1002A000282B25BB089522B381E090E002C0880F7F
:1002B000991F6A95E2F7282B22BB0895813099F0A7
:1002C000813028F08230D9F0833081F524C02BB3FF
:1002D00081E090E002C0880F991F6A95E2F780954F
:1002E00082238BBB089528B381E090E002C0880F81
:1002F000991F6A95E2F78095822388BB089525B3FC
:1003000081E090E002C0880F991F6A95E2F780951E
:10031000822385BB089522B381E090E002C0880F5C
:10032000991F6A95E2F78095822382BB0895FB01AD
:10033000813049F0813028F0823039F0833051F437
:1003400007C089B303C086B301C083B38083089517
:1003500080B380830895FA01813049F0813028F01C
:10036000823039F08330C1F40EC089B303C086B344
:1003700001C083B390E002C0959587956A95E2F736
:1003800081708083089580B390E002C09595879531
:100390006A95E2F7817080830895813091F0813011
:1003A00028F08230C9F0833061F521C02BB381E0A1
:1003B00090E002C0880F991F6A95E2F728272BBBAF
:1003C000089528B381E090E002C0880F991F6A95D4
:1003D000E2F7282728BB089525B381E090E002C00A
:1003E000880F991F6A95E2F7282725BB089522B345
:1003F00081E090E002C0880F991F6A95E2F72827F4
:1004000022BB0895813091F0813028F08230C9F00C
:10041000833061F521C02BB381E090E002C0880FEA
:10042000991F6A95E2F7282B2BBB089528B381E02A
:1004300090E002C0880F991F6A95E2F7282B28BB2D
:10044000089525B381E090E002C0880F991F6A9556
:10045000E2F7282B25BB089522B381E090E002C08B
:10046000880F991F6A95E2F7282B22BB0895CF9336
:10047000C82F81E061E040E00E94230181E062E05A
:1004800040E00E94230181E063E040E00E942301FC
:100490009BB38C2F807F9F70892B8BBB81E063E0A7
:1004A00041E00E9423018FE99FE00197F1F700C02E
:1004B000000081E063E040E00E9423018BB3C2951D
:1004C000C07F8F70C82BCBBB81E063E041E00E940E
:1004D00023018FE99FE00197F1F700C0000081E060
:1004E00063E040E00E9423018FE19EE40197F1F771
:1004F00000C00000CF91089581E061E041E00E94DA
:100500009E0081E062E041E00E949E0081E063E0A5
:1005100041E00E949E0080E064E041E00E949E0075
:1005200080E065E041E00E949E0080E066E041E0FE
:100530000E949E0080E067E041E00E949E008FEFF5
:1005400091EEA4E081509040A040E1F700C000008F
:1005500083E30E94370282E30E94370288E20E940E
:1005600037028EE00E94370281E00E94370282E06B
:100570000E9437020895CF93C82F81E061E041E0E7
:100580000E94230181E062E040E00E94230181E0BB
:1005900063E040E00E9423018C2F807F8BBB81E0D1
:1005A00063E041E00E9423018FE99FE00197F1F7AA
:1005B00000C0000081E063E040E00E942301C2959A
:1005C000C07FCBBB81E063E041E00E9423018FE963
:1005D0009FE00197F1F700C0000081E063E040E098
:1005E0000E9423018FE19EE40197F1F700C0000013
:1005F000CF9108951F93CF93DF93EC0110E003C0D8
:100600000E94BB021F5FFE01E10FF11D8081882364
:10061000B9F7DF91CF911F91089581E00E943702D1
:100620000895CF93DF9300D0CDB7DEB790E89983DC
:1006300090EC9A83FE01E80FF11D8181860F0E94E4
:1006400037020F900F90DF91CF9108954F925F92F4
:100650006F927F928F929F92AF92BF92CF92DF92D2
:10066000EF92FF92CF93DF9300D000D0CDB7DEB7EB
:100670004B015C0197FF0BC08DE20E94BB02B0945E
:10068000A09490948094811C911CA11CB11C91E0B9
:10069000C92ED12CE12CF12C2AE0422E512C612CB8
:1006A000712C18C0C701B6012AE030E040E050E0EC
:1006B0000E94A9076B017C01C501B401A30192014D
:1006C0000E94EF07DC01CB01C80ED91EEA1EFB1EFB
:1006D00049015A0181149104A104B10419F717C00A
:1006E000C701B601A50194010E94EF07862F805D26
:1006F00029833A834B835C830E94BB022981C22EEB
:100700003A81D32E4B81E42E5C81F52E05C08AE020
:10071000882E912CA12CB12C82E0C816D104E104C2
:10072000F104F4F60F900F900F900F90DF91CF919E
:10073000FF90EF90DF90CF90BF90AF909F908F9001
:100740007F906F905F904F90089582E062E041E06B
:100750000E949E00089582E062E041E00E94230131
:10076000089582E062E040E00E942301089582E063
:1007700062E00E94CD01089583E065E041E00E94BF
:100780009E000E9459050E94780508959C01B901B8
:10079000882777FD8095982F0E94BA062AE939E9C3
:1007A00049E95EE30E94460720E030E040EA50E479
:1007B0000E9428060E948C06862F0E9464050895D8
:1007C00081E064E041E00E949E0081E065E041E05C
:1007D0000E949E0081E066E040E00E949E0081E071
:1007E00067E041E00E949E0083E58DB9089581E0B5
:1007F00064E040E00E949E0081E065E040E00E94ED
:100800009E0081E066E041E00E949E0081E067E09A
:1008100040E00E949E0080E48DB9089581E064E08C
:1008200040E00E942301089581E064E041E00E94DD
:10083000230108958FB9779BFECF8FB1089583B7B9
:1008400083BF89B7816089BF8FB780688FBF0895E4
:1008500083B7856083BF089583B78E7F83BF83B7D7
:100860008D7F83BF83B78B7F83BF089528EE33E0EE
:1008700040E050E00E94A907DC01CB01E6E0B6951C
:10088000A79597958795EA95D1F7492F5A2F6B2F02
:10089000772781958093D90082BF4F5F5F4F6F4F5D
:1008A0007F4F4093D5005093D6006093D70070934C
:1008B000D80008959093DB008093DA0008951F928A
:1008C0000F920FB60F9211242F933F934F935F9384
:1008D0006F937F938F939F93AF93BF93EF93FF9308
:1008E0008091DC009091DD00A091DE00B091DF00EE
:1008F0000196A11DB11D8093DC009093DD00A093B3
:10090000DE00B093DF004091D5005091D600609199
:10091000D7007091D80084179507A607B70781F410
:100920008091D90082BF1092DC001092DD001092FD
:10093000DE001092DF00E091DA00F091DB00099513
:10094000FF91EF91BF91AF919F918F917F916F91A7
:100950005F914F913F912F910F900FBE0F901F907D
:1009600018958EB588608EBD89B7806189BF8FB7B5
:1009700080688FBF08958EB585608EBD08958EB551
:100980008E7F8EBD8EB58D7F8EBD8EB58B7F8EBDDD
:100990000895603A2FE0720720E0820720E0920776
:1009A000F0F428EE33E040E050E00E94A907DC01BB
:1009B000CB01E6E0B695A79597958795EA95D1F78F
:1009C00001979BBD8ABD81E090E0A0E0B0E08093FC
:1009D000D1009093D200A093D300B093D400089597
:1009E0009093E1008093E00008951F920F920FB65C
:1009F0000F9211242F933F934F935F936F937F93A5
:100A00008F939F93AF93BF93EF93FF938091E200F7
:100A10009091E300A091E400B091E5000196A11D42
:100A2000B11D8093E2009093E300A093E400B093A3
:100A3000E5004091D1005091D2006091D3007091B7
:100A4000D40084179507A607B70769F41092E2004F
:100A50001092E3001092E4001092E500E091E000B3
:100A6000F091E1000995FF91EF91BF91AF919F91B6
:100A70008F917F916F915F914F913F912F910F9047
:100A80000FBE0F901F90189583B7886483BF83B7FC
:100A9000806283BF0895382F20E0C90164E670E0CA
:100AA0000E94C80761506CBF089583B7836083BFFD
:100AB00008958FB582688FBD8EB58C618EBD82EE34
:100AC00094E097BD86BD0895482F50E022EE34E0B3
:100AD000429FC001439F900D529F900D112464E6E8
:100AE00070E00E94DC07615070407BBD6ABD0895D4
:100AF0008EB584608EBD089583E060E040E00E9482
:100B00009E0083E061E041E00E949E008AB188611E
:100B10008AB980B5866880BD87E689B908955F9BEC
:100B2000FECF8CB108959BB195FFFDCF8CB9089590
:100B30001F93CF93DF9310E004C00E948F0588833A
:100B40001F5FC12FD0E0C256DF4F88818823A9F7ED
:100B50008EE990E0DF91CF911F9108950E94590591
:100B60000E94BC030E94E0030E940E048FEF93EDED
:100B7000A0E381509040A040E1F700C000000E9437
:100B8000A5030E947C050E947C020E948F05C82F4D
:100B90000E941A048FEF99E6A8E181509040A0408E
:100BA000E1F700C00000C133B1F40E94AB0380E65E
:100BB00090E00E94FA028FEF97EAA1E68150904000
:100BC000A040E1F700C0000088E690E00E94FA0231
:100BD0008CE390E017C0C23319F50E94B10387E798
:100BE00090E00E94FA028FEF97EAA1E681509040D0
:100BF000A040E1F700C0000080E890E00E94FA0207
:100C00008AE590E00E94C6038FEF97EAA1E6815043
:100C10009040A040E1F700C000000E940D03B5CF56
:100C2000C33009F0B2CF8FE890E00E94FA0280E072
:100C30000E9464008AE00E945B008FEF97EAA1E6C1
:100C400081509040A040E1F700C000009ECF505876
:100C5000BB27AA270ED0E0C0D1D030F0D6D020F0EC
:100C600031F49F3F11F41EF4C6C00EF4E095E7FB8B
:100C7000BCC0E92FE2D080F3BA176207730784077C
:100C8000950718F071F49EF5FAC00EF4E0950B2E5E
:100C9000BA2FA02D0B01B90190010C01CA01A001CE
:100CA0001124FF27591B99F0593F50F4503E68F129
:100CB0001A16F040A22F232F342F4427585FF3CF6A
:100CC000469537952795A795F0405395C9F77EF43B
:100CD0001F16BA0B620B730B840BBAF09150A1F084
:100CE000FF0FBB1F661F771F881FC2F70EC0BA0F0A
:100CF000621F731F841F48F4879577956795B79592
:100D0000F7959E3F08F0B3CF9395880F08F0992789
:100D1000EE0F97958795089598D088F09F5790F09B
:100D2000B92F9927B751A0F0D1F0660F771F881F10
:100D3000991F1AF0BA95C9F712C0B13081F09FD04F
:100D4000B1E008959CC0672F782F8827B85F39F0ED
:100D5000B93FCCF3869577956795B395D9F73EF46F
:100D600090958095709561957F4F8F4F9F4F089517
:100D7000E89409C097FB3EF4909580957095619535
:100D80007F4F8F4F9F4F9923A9F0F92F96E9BB27EB
:100D90009395F695879577956795B795F111F8CF67
:100DA000FAF4BB0F11F460FF1BC06F5F7F4F8F4FD2
:100DB0009F4F16C0882311F096E911C0772321F0C8
:100DC0009EE8872F762F05C0662371F096E8862F60
:100DD00070E060E02AF09A95660F771F881FDAF7B7
:100DE000880F9695879597F9089597F99F6780E8FA
:100DF00070E060E008959FEF80EC089500240A946D
:100E00001616170618060906089500240A941216E5
:100E10001306140605060895092E0394000C11F418
:100E2000882352F0BB0F40F4BF2B11F460FF04C0C5
:100E30006F5F7F4F8F4F9F4F089557FD9058440F1E
:100E4000551F59F05F3F71F04795880F97FB991F29
:100E500061F09F3F79F087950895121613061406E6
:100E6000551FF2CF4695F1DF08C016161706180673
:100E7000991FF1CF86957105610508940895E8944E
:100E8000BB2766277727CB0197F908950BD0C4CFEE
:100E9000B5DF28F0BADF18F0952309F0A6CFABCF65
:100EA0001124EECFCADFA0F3959FD1F3950F50E048
:100EB000551F629FF001729FBB27F00DB11D639F0C
:100EC000AA27F00DB11DAA1F649F6627B00DA11DB2
:100ED000661F829F2227B00DA11D621F739FB00D58
:100EE000A11D621F839FA00D611D221F749F3327C8
:100EF000A00D611D231F849F600D211D822F762F61
:100F00006A2F11249F5750408AF0E1F088234AF05D
:100F1000EE0FFF1FBB1F661F771F881F91505040A9
:100F2000A9F79E3F510570F060CFAACF5F3FECF369
:100F3000983EDCF3869577956795B795F795E79595
:100F40009F5FC1F7FE2B880F911D9695879597F9A6
:100F50000895629FD001739FF001829FE00DF11D03
:100F6000649FE00DF11D929FF00D839FF00D749F23
:100F7000F00D659FF00D9927729FB00DE11DF91FCF
:100F8000639FB00DE11DF91FBD01CF01112408952C
:100F9000AA1BBB1B51E107C0AA1FBB1FA617B7079F
:100FA00010F0A61BB70B881F991F5A95A9F78095BB
:100FB0009095BC01CD01089597FB092E07260AD014
:100FC00077FD04D0E5DF06D000201AF47095619516
:100FD0007F4F0895F6F7909581959F4F089597FB61
:100FE000092E05260ED057FD04D014D00AD0001CBF
:100FF00038F450954095309521953F4F4F4F5F4FB6
:101000000895F6F790958095709561957F4F8F4F75
:101010009F4F0895A1E21A2EAA1BBB1BFD010DC014
:10102000AA1FBB1FEE1FFF1FA217B307E407F50798
:1010300020F0A21BB30BE40BF50B661F771F881F74
:10104000991F1A9469F760957095809590959B010A
:0C105000AC01BD01CF010895F894FFCF62
:10105C004C4544204F4E20004D4F564520363020F5
:10106C00444547524545004C4544204F46462000D8
:10107C004D4F564520393020444547524545004D8B
:10108C004F5645204443204D4F544F5220003000C2
:10109C000000000000000000000000000000000044
:1010AC000000000000000000000000000000000034
:1010BC000000000000000000000000000000000024
:00000001FF
